:03000000020A8170
:0C0A8100787FE4F6D8FD75814C02081760
:10097E0007E5080300173B3B0100000006000000DE
:10098E000006000000000000000000000000000053
:06099E0000000000000053
:1008170078217C007D007BFF7A09797E7E007F0C42
:100827001200D3782D7C007D007BFF7A09798A7EC0
:10083700007F0E1200D3783B7C007D007BFF7A0996
:1008470079987E007F0C1200D31208E0120AA57B6C
:10085700007A00792112087C7B007A007921120442
:100867009F7B007A00792112087C7B007A0079212E
:0508770012049F80EC5B
:1009C500EFC4540F75F00AA4FEEF540F2E12013F29
:0909D5001209E3120A721209DE94
:0509DE000000000022F2
:050AA500D287D2862279
:100A6100D287D2861209DEC2871209DEC286020946
:010A7100DEA6
:0C0A8D00C287D2861209DED2870209DE81
:100A19007E08EF3392871209DED2861209DEC2867A
:090A29001209DEEF25E0FFDEE911
:010A320022A1
:1009E300E4FF7E08D2861209DEEF25E0FF3087039D
:0A09F300430701C2861209DEDEEAA6
:0109FD0022D7
:0F0A7200C2871209DED2861209DEC2860209DEB1
:0C0A9900D287D2861209DEC2860209DE76
:030A3300120A198B
:100A3600D2861209DEA28792001209DEC286120948
:030A4600DEA2002D
:010A4900228A
:10087C00120A617FD0120A331209DE1209DEE4FF7C
:10088C00120A331209DE1209DE120A617FD1120A32
:10089C0019120A361209DE1209DE1209D590000768
:1008AC001209C59000061209C5900005EF1209D275
:1008BC00900004EF1209D2900003EF1209D29000BD
:1008CC0002EF12013F1209E3120A99E48FF01202AF
:0408DC004F020A8D30
:10072400202020002F0020202020002020003A003C
:10073400414D00504D00416C61726D313A200041D1
:100744006C61726D323A2000543A002D002E002064
:100754002D002000DF432052483A002500504D323E
:100764002E353A200020E4672F6D3300838485867C
:1007740088898A8BC4C5C7C8C9CA83848586888981
:100784008A8BC2C3C5C6C8C988898B8C8E8FC8C9D9
:0F079400CBCCCECF303132333435363738390015
:1009A4005380C0438002D2A0C2A05380C0438008B9
:0609B400D2A0C2A07F01E9
:0A09BA00EF60077E64DEFE1F80F68A
:0109C4002210
:100A4A00C2A27D0A7FFF1209BADDF9D2A27D0A7F0E
:060A5A00FF1209BADDF9EC
:010A60002273
:1009FE00C2A05380C0438010D2A07F0A1209BA3021
:0B0A0E008306D2A2C2A280F7C2A02281
:080937007A0779327BFF7D0194
:06093F008B4A8A4B894C33
:10094500E4FCECC39D50311209FE5380C0AB4AAAAA
:100955004BA94C8C82758300120112FFC4540F44BD
:10096500204280D2A0C2A05380C0EF540F44204241
:0809750080D2A0C2A00C80CAD0
:01097D002257
:1007A300AB47AA48A949120112FF7E007D0A7C00CB
:1007B3008E4A8F4BAB05AA04EB4A60571209FE53CE
:1007C30080C0AE4AAF4BAD03AC0212016174982FE7
:1007D300F58274073EF583E493FFC4540F4420422B
:1007E30080D2A0C2A05380C0EF540F44204280D2D5
:1007F300A0C2A0AE4AAF4BAD03AC021201618C4A5A
:100803008D4B7C007D0AAF03AE02120161AA06ABD9
:040813000780A52293
:1008E0007F011209BA1209A41209A45380C0D2A030
:1008F000C2A05380C0438008D2A0C2A07F0A1209C0
:10090000BA5380C0D2A0C2A05380C0438001120954
:10091000B45380C0D2A0C2A05380C0438006D2A0EE
:10092000C2A01209FE5380C0D2A0C2A05380C0430F
:07093000800CD2A0C2A0223E
:10049F008B478A4889491209FE5380C0438008D28E
:1004AF00A0C2A05380C0D2A0C2A07BFF7A0779243C
:1004BF007D0312093FAB47AA48A9491201ECFFAED1
:1004CF00F07DE87C031207B37A07792812093B9075
:1004DF0000021207A37BFF7A0779287D0112093FDB
:1004EF009000031207A37BFF7A0779247D0312097B
:1004FF003F1209FE5380C043800CD2A0C2A053808C
:10050F00C0D2A0C2A0AB47AA48A9499000081201C7
:10051F00127BFF60077A07792A0D80067A07792FF9
:10052F007D0212093FAB47AA48A94990000512075F
:10053F00A9120937AB47AA48A9499000061207A983
:10054F00120937AB47AA48A9499000071207A9AB70
:10055F0047AA48A949900008120112600A7BFF7A46
:10056F0007792A7D0480327BFF7A07792F7D02126B
:10057F00093FAB47AA48A9499000091201127BFF16
:10058F0060067A07793480067A0779377D02120977
:10059F003F7BFF7A07792F7D0212093FAB47AA48AD
:1005AF00A94990000A120112605D90000812011211
:1005BF0060171209FE5380C0AB47AA48A9499000A3
:1005CF000B12011290077080151209FE5380C0ABF9
:1005DF0047AA48A94990000B12011290077E93FF7A
:1005EF00C4540F4280D2A0C2A05380C0EF540F4218
:1005FF0080D2A0C2A01209FE5380C0D2A0C2A053C5
:10060F0080C043800F80101209FE5380C0D2A0C259
:0C061F00A05380C043800CD2A0C2A022D7
:10062B008B088A09890A1209FE5380C0438008D2BD
:10063B00A0C2A05380C0D2A0C2A07BFF7A07793A98
:10064B007D0812093FAB08AA09A90A1200F9120783
:10065B00AC120937AB08AA09A90A9000011207A925
:10066B00120937AB08AA09A90A9000021207A912AE
:10067B0009FE5380C043800CD2A0C2A05380C0D2CD
:10068B00A0C2A07BFF7A0779437D0812093FAB0814
:10069B00AA09A90A9000051207A9120937AB08AAE3
:1006AB0009A90A9000061207A9120937AB08AA0973
:1006BB00A90A9000071207A9AB08AA09A90A90007A
:1006CB000C120112603E1209FE5380C0AB08AA093E
:1006DB00A90A90000D12011290078C93FFC4540FBE
:1006EB004280D2A0C2A05380C0EF540F4280D2A050
:1006FB00C2A01209FE5380C0D2A0C2A05380C04337
:10070B00800F80101209FE5380C0D2A0C2A053806C
:09071B00C043800CD2A0C2A02250
:10026E008B0B8A0C890D1209FE5380C0438008D275
:10027E00A0C2A05380C0D2A0C2A07BFF7A07794C47
:10028E007D0212093FAB0BAA0CA90D1201ECC3940F
:10029E009DE5F06480947F50277BFF7A07794F1D90
:1002AE0012093FAB0BAA0CA90D1201ECFFC3E49F80
:1002BE00FFE495F0FE7C007D0A1201B67D0A8038BF
:1002CE00AB0BAA0CA90D1201ECC3E5F0648094806F
:1002DE00504A7BFF7A0779537D0212093FAB0BAA76
:1002EE000CA90D1201ECFFC3E49FFFE495F0FE7C18
:1002FE00007D0A1201B67D017C001207B37BFF7AE6
:10030E000779517D0112093FAB0BAA0CA90D120101
:10031E00ECFFC3E49FFFE495F0FE8070AB0BAA0CDC
:10032E00A90D1201ECC39464E5F0648094807BFF08
:10033E0050207A07792F7D0212093FAB0BAA0CA928
:10034E000D1201ECFFAEF07C007D0A1201B67D01AC
:10035E00801E7A0779567D0112093FAB0BAA0CA9B4
:10036E000D1201ECFFAEF07C007D0A1201B67D0A83
:10037E007C001207B37BFF7A0779517D0112093F8A
:10038E00AB0BAA0CA90D1201ECFFAEF07C007D0A9E
:10039E001201B6AE04AF057D017C001207B37BFFE0
:1003AE007A0779587D0612093FAB0BAA0CA90D905E
:1003BE000002120217D39409E5F09400401C7BFF53
:1003CE007A0779567D0112093FAB0BAA0CA90D9045
:1003DE000002120217FFAEF08011AB0BAA0CA90D92
:1003EE00900002120217FFAEF07D0A7C001207B3D6
:1003FE007BFF7A07795F7D0112093F1209FE538058
:10040E00C043800CD2A0C2A05380C0D2A0C2A07B99
:10041E00FF7A0779617D0712093FAB0BAA0CA90D74
:10042E00900006120217FFAEF0D39463EE940040D4
:10043E00047D64804CAB0BAA0CA90D900006120231
:10044E0017D39409E5F094007BFF401C7A07795688
:10045E007D0112093FAB0BAA0CA90D9000061202EA
:10046E0017FFAEF07D0A80197A07792F7D021209E7
:10047E003FAB0BAA0CA90D900006120217FFAEF0AF
:10048E001D7C001207B37BFF7A0779697D0602098E
:01049E003F1E
:010AAA002229
:10000300E709F608DFFA8046E709F208DFFA803EDF
:1000130088828C83E709F0A3DFFA8032E309F608CC
:10002300DFFA8078E309F208DFFA807088828C8334
:10003300E309F0A3DFFA806489828A83E0A3F608E8
:10004300DFFA805889828A83E0A3F208DFFA804CC2
:1000530080D280FA80C680D4806980F28033801099
:1000630080A680EA809A80A880DA80E280CA803302
:1000730089828A83ECFAE493A3C8C582C8CCC5837A
:10008300CCF0A3C8C582C8CCC583CCDFE9DEE7804A
:100093000D89828A83E493A3F608DFF9ECFAA9F0C9
:1000A300EDFB2289828A83ECFAE0A3C8C582C8CC1F
:1000B300C583CCF0A3C8C582C8CCC583CCDFEADE38
:1000C300E880DB89828A83E493A3F208DFF980CC9A
:1000D30088F0EF60010E4E60C388F0ED2402B40493
:1000E3000050B9F582EB2402B4040050AF2323453A
:0600F3008223900053730C
:1000F900BB010689828A83E0225002E722BBFE0205
:09010900E32289828A83E4932237
:10011200BB010CE58229F582E5833AF583E02250A2
:1001220006E92582F8E622BBFE06E92582F8E222EC
:0D013200E58229F582E5833AF583E4932206
:10013F00F8BB010DE58229F582E5833AF583E8F0F6
:10014F00225006E92582C8F622BBFE05E92582C8A2
:02015F00F2228A
:10016100BC000BBE0029EF8DF084FFADF022E4CC82
:10017100F875F008EF2FFFEE33FEEC33FCEE9DEC4B
:10018100984005FCEE9DFE0FD5F0E9E4CEFD22ED91
:10019100F8F5F0EE8420D21CFEADF075F008EF2FDB
:1001A100FFED33FD4007985006D5F0F222C398FDCC
:0501B1000FD5F0EA2269
:1001B600C2D5EC30E709B2D5E4C39DFDE49CFCEE64
:1001C60030E715B2D5E4C39FFFE49EFE120161C37A
:1001D600E49DFDE49CFC800312016130D507C3E475
:0601E6009FFFE49EFE22D3
:1001EC00BB010A89828A83E0F5F0A3E022500687DE
:1001FC00F009E71922BBFE07E3F5F009E3192289A0
:0B020C00828A83E493F5F074019322D2
:10021700BB0110E58229F582E5833AF583E0F5F025
:10022700A3E0225009E92582F886F008E622BBFE02
:100237000AE92582F8E2F5F008E222E5832AF58348
:08024700E993F5F0A3E993220D
:10024F00BB010A89828A83F0E5F0A3F0225006F7FA
:0F025F0009A7F01922BBFE06F3E5F009F31922F7
:00000001FF
